:040800000CEF04F005
:10080800FACF8FF1FBCF90F1E9CF91F105ED28F008
:1008180000EE00F010EE10F014EC04F084EF1DF080
:0E082800EE6AE550E150FCE1E250FAE1120008
:1010000000010000000A00000064000000E8030086
:101010000010270000A086010040420F0080969833
:101020000000E1F50500CA9A3B00803FCDCC3DD7DA
:10103000233C12833AB7D138C62737388635C0D615
:1010400033CC2B32708930E7DB2EE53C1E42A20DFB
:1010500000803F00204100C842007A44401C4650B6
:10106000C34724744997184BBCBE4C6B6E4E031596
:101070005079AD60F34971010000001000000000DC
:10108000010000001000000000010000001000003E
:10109000000001000000103031323334353637386B
:1010A0003961626364656600286E756C6C29002581
:1010B000660000000101260E010101013E6F0101E1
:1010C000010E01013F6F76EF17F0010101013D5163
:1010D000250AD8B401D001D00DD022C1E9FF23C127
:1010E000EAFF01013DC1EFFF01010101224B232B6A
:1010F00076EF17F0000E01010101426F000E0101B1
:10110000436F000E01010101466F000E0101476FA0
:1011100020D001010101468701010101244B252B4B
:101120002CD001010101468101010101244B252B35
:1011300024D001010101468301010101244B252B2B
:101140001CD001010101478701010101244B252B1E
:1011500014D0010124C1F6FF010125C1F7FF000EE3
:10116000F86E0800F550200ADCE0030AEAE0080AFD
:10117000E0E0060ACEE000D001D0CAD701010101AB
:1011800046A301D001D003D0010101014691010124
:1011900024C1F6FF010125C1F7FF000EF86E08001B
:1011A0000101F5CF5BF1E3EC2AF0D8A001D001D02A
:1011B00047D0000E01010101426F000E0101436F93
:1011C0000A0E010101017C6F000E01017D6F42C119
:1011D0007AF143C17BF187EC29F0010124C1F6FFCC
:1011E000010125C1F7FF000EF86E0800F55001015E
:1011F00001017A27000E01017B23D00E01010101BC
:101200007A2501010101426FFF0E010101017B21DD
:101210000101436F01010101244B252B010124C170
:10122000F6FF010125C1F7FF000EF86E080001016D
:10123000F5CF5BF1E3EC2AF0D8B001D001D0C0D7F4
:10124000010124C1F6FF010125C1F7FF000EF86E70
:101250000800F5502E0AD8A401D001D050D00101C9
:101260000101478D01010101244B252B000E0101D5
:101270000101446F000E0101456F2ED00A0E0101DD
:1012800001017C6F000E01017D6F44C17AF145C1FF
:101290007BF187EC29F0010124C1F6FF010125C192
:1012A000F7FF000EF86E0800F550010101017A27E2
:1012B000000E01017B23D00E010101017A250101FD
:1012C0000101446FFF0E010101017B210101456F06
:1012D00001010101244B252B010124C1F6FF01016D
:1012E00025C1F7FF000EF86E08000101F5CF5BF194
:1012F000E3EC2AF0D8B001D001D0C0D70AD0000E5C
:1013000001010101446F000E0101456F010101015E
:10131000478927D193EF17F001010101478553D188
:1013200001010101468B0101010147814CD10101FD
:101330000101468B01010101478345D144D10101DF
:101340003EC1E9FF01013FC1EAFF0101020E0101B7
:101350003E27000E01013F230101EECF4EF10101B6
:10136000EDCF4FF1010101014F514E11D8A401D031
:1013700001D007D0A80E010101014E6F100E01012E
:101380004F6F000E01010101506F000E0101516FFE
:1013900004D001010101504B512B010101015051B9
:1013A000010101014E250101556FE86A01010101AA
:1013B00050BFE868010101014F210101566F55C17D
:1013C000F6FF56C1F7FF000EF86E0F0EF76403D05C
:1013D0000800F55005D0F6CFE9FFF7CFEAFFEF5050
:1013E0000009D8A401D001D0D4D701010101455191
:1013F0004411D8B401D001D014D0010101015051E1
:1014000001010101445D010101015151010101018D
:101410004559D8B001D001D004D044C150F145C1E4
:1014200051F101010101425101010101505D010130
:1014300001014351010101015159D8B001D001D03E
:101440000CD0010101EE50F0EE5001010101425FAC
:10145000ED5001010101435B07D0000E01010101C4
:10146000426F000E0101436F0101010146B701D037
:1014700001D018D00AD022C1E9FF23C1EAFF200E13
:10148000EF6E01010101224B232B010101014207F3
:10149000D8A0430701014229D8B44329D8A401D0D8
:1014A00001D0E9D720D001014EC1F6FF01014FC1A3
:1014B000F7FF000EF86E22C1E1FF23C1E2FF0F0E1D
:1014C000F76403D00800F55005D0F6CFE9FFF7CF59
:1014D000EAFFEF50E76E010101014E4B4F2B010176
:1014E0000101224B232B010101015007D8A0510714
:1014F00001015029D8B45129D8A401D001D0D3D7A3
:101500000101010146A701D001D018D00AD022C1A3
:10151000E9FF23C1EAFF200EEF6E01010101224B1A
:10152000232B010101014207D8A0430701014229F1
:10153000D8B44329D8A401D001D0E9D776EF17F069
:1015400001013D0E010101014E6F0101010E01017A
:101550004F6F010E01010101506F000E0101516F2B
:1015600044D70101010124510101556F010101011D
:1015700025510101566F0101244B252B55C1F6FF62
:1015800056C1F7FF000EF86E08000101F5CF3DF1DE
:1015900001013D51000A01E1BDD6450A01E1C0D675
:1015A000020A01E1C4D6220A01E1BDD6030A01E123
:1015B000B3D6010A01E1BED6170A01E1BFD6030A7C
:1015C00001E1BDD6BDD7070E010101014715D8B411
:1015D00001D002D039EF15F00101010147A901D076
:1015E00001D007D0060E01010101446F000E010178
:1015F000456F01013EC1E9FF01013FC1EAFF010161
:10160000030E01013E27000E01013F230101EECF31
:101610004BF10101EECF4CF10101EDCF4DF1010194
:1016200001014D51800A800F07E1000E01014C5D60
:1016300003E1000E01014B5DD8B001D001D012D002
:101640004BC15BF14CC15CF14DC15DF18BEC2AF0FB
:101650005BC14BF15CC14CF15DC14DF1030E010169
:1016600001014613000E01010101406F000E01014E
:10167000416F010101014B5101014C1101014D115B
:10168000D8B401D001D0B0D0820E0101556FFF0E49
:10169000566F01014BC157F101014CC158F10101D5
:1016A0004DC159F101014EC15AF1100E06D0D8902A
:1016B00001015A33593358335733E82EF8D7010113
:1016C00057510101552501010101406F000E010133
:1016D00056210101416F010101014007D8A04107D6
:1016E000030E010101017C6F000E01017D6F40C1FD
:1016F0007AF141C17BF187EC29F07AC140F17BC1DD
:1017000041F10A0E010101017C6F000E01017D6FA4
:1017100040C17AF141C17BF115EC25F07AC140F16D
:101720007BC141F10101010141AF01D001D005D0E0
:10173000010101014007D8A0410701010101405109
:101740000008010101015B6F9BEC17F05BC17AF1AE
:101750005CC17BF15DC17CF14BC17DF14CC17EF17F
:101760004DC17FF1A9EC20F07AC148F17BC149F16C
:101770007CC14AF1000E010101015E6F800E010182
:1017800001015F6F3F0E01010101606F48C15BF114
:1017900049C15CF14AC15DF12DEC27F0D8B001D010
:1017A00001D006D0010101014007D8A041071CD09B
:1017B000000E010101015E6F200E010101015F6F4A
:1017C000410E01010101606F48C15BF149C15CF14B
:1017D0004AC15DF12DEC27F0D8A001D001D004D092
:1017E00001010101404B412B010101014151800ADE
:1017F000800F010ED8B4405DD8B001D001D009D01F
:101800000101556F010E010101013D6F01015551AB
:1018100002D040C13DF10101010147B101D001D029
:1018200029D00101010147A301D002D0A2EF10F09D
:10183000010101014151800A810FFC0ED8B4405DC5
:10184000D8A001D001D016D0010101014151800A78
:101850000101556F0101445101010101405D010188
:1018600001014551800A01015559D8A001D002D08B
:10187000A2EF10F00101010145514411D8B401D08B
:1018800001D00BD00101010147A301D001D005D047
:10189000010101014407D8A04507090E010101011A
:1018A000445D000E01014559D8A001D001D009D0F6
:1018B0000101556F080E010101013D6F01015551F4
:1018C00002D044C13DF1010101014B5101014C1114
:1018D00001014D11D8B401D001D005D101010101A0
:1018E0003D5101010101405D010101015B6F9BEC74
:1018F00017F05BC12BF15CC12CF15DC12DF12BC147
:101900005DF12CC15EF12DC15FF101014B0E0101B2
:1019100001015B6F0101010E01015C6F47EC2AF0D0
:101920004BC15BF14CC15CF14DC15DF1D4EC23F0D6
:101930005BC15BF15CC15CF15DC15DF15EC15EF1FB
:101940009DEC27F05BC163F15CC164F15DC165F1A1
:101950004BC160F14CC161F14DC162F169EC2AF0FB
:1019600060C15BF161C15CF162C15DF1000E01011A
:1019700001015E6F000E010101015F6F3F0E010169
:101980000101606F2DEC27F0D8A001D001D017D055
:10199000000E010101015D6F000E010101015E6F8A
:1019A0003F0E010101015F6F01014B0E01010101B9
:1019B0005B6F0101010E01015C6F25EC2AF03DC156
:1019C00055F1D89001015537D89001015537040ED3
:1019D00001015527010E01015525F66EF76A100E1B
:1019E000F722F86A000EF8224BC15BF14CC15CF1A2
:1019F0004DC15DF1D4EC23F00900F5500101010166
:101A00005B5D0900F55001015C590900F5500101C9
:101A10005D590900F55001015E59D8A001D001D0EF
:101A20001CD0CD0E010101015D6FCC0E0101010141
:101A30005E6F3D0E010101015F6F01014B0E01015F
:101A400001015B6F0101010E01015C6FE1EC29F006
:101A500001010101404B412B46D0010101013D51E3
:101A6000040D010EF324F66EF76A100EF722F86AE1
:101A7000000EF8224BC15BF14CC15CF14DC15DF130
:101A8000D4EC23F00900F550010101015B5D090070
:101A9000F55001015C590900F55001015D5909003B
:101AA000F55001015E59D8B001D001D01CD0000E14
:101AB000010101015D6F200E010101015E6F410E08
:101AC000010101015F6F01014B0E010101015B6F1B
:101AD0000101010E01015C6FE1EC29F0010101013E
:101AE0004007D8A041070101010147A301D001D05F
:101AF000B2D00101010147B701D001D0ACD0010142
:101B000001014551800A800F0B0ED8B4445DD8A066
:101B100001D001D007D00A0E01010101446F000E6F
:101B20000101456F4BC15BF14CC15CF14DC15DF1F1
:101B3000D4EC23F05BC14EF15CC14FF15DC150F1BB
:101B40005EC151F124D0010101014407D8A045072D
:101B50000A0E010101015F6F000E0101606F000EAE
:101B60000101616F000E0101626F4EC15BF14FC157
:101B70005CF150C15DF151C15EF1ADEC25F05BC18E
:101B80004EF15CC14FF15DC150F15EC151F10101F7
:101B900051514E114F115011D8B401D001D020D065
:101BA0000A0E010101015F6F000E0101606F000E5E
:101BB0000101616F000E0101626F4EC15BF14FC107
:101BC0005CF150C15DF151C15EF1BCEC26F0010148
:101BD0005E515B115C115D11D8B401D001D0B3D757
:101BE000010101014551800A0101556F0101010107
:101BF0003D5101010101445D800E010101013DBF24
:101C00007F0E01015559D8B001D001D024D0010177
:101C100001014451010101013D5D010101015B6FC1
:101C20009BEC17F05BC12EF15CC12FF15DC130F16F
:101C30002EC15DF12FC15EF130C15FF101014B0E8C
:101C4000010101015B6F0101010E01015C6F47ECB5
:101C50002AF044C13DF1050E0101010144250101B5
:101C6000556F000E0101010145210101566F01016F
:101C7000555101010101425F01015651010101016C
:101C8000435B0101010145514411D8A401D001D0A9
:101C900006D00101010147A701D001D005D0010103
:101CA00001014207D8A04307030E010101014615B7
:101CB0000101556F000E0101010147150101566F29
:101CC000010156515511D8B401D001D005D0010100
:101CD00001014207D8A043070101010146B701D025
:101CE00001D01CD00FD022C1E9FF23C1EAFF200E92
:101CF000EF6E01010101224B232B0101010142077B
:101D0000D8A04307010101014351800A800F010E51
:101D1000D8B4425DD8B001D001D0E5D701010101AE
:101D200046A301D001D022D00101556F2B0E010135
:101D30000101316F010155510101010146A101D09D
:101D400001D008D00101556F2D0E01010101316F45
:101D50000101555122C1E9FF23C1EAFF010131C14F
:101D6000EFFF01010101224B232B10D001010101E2
:101D700046A101D001D00AD022C1E9FF23C1EAFF68
:101D8000200EEF6E01010101224B232B4BC15BF1B1
:101D90004CC15CF14DC15DF1D4EC23F05BC14EF15F
:101DA0005CC14FF15DC150F15EC151F10101010112
:101DB0003D51040D010EF324F66EF76A100EF72262
:101DC000F86A000EF82209000101F5CF5FF1090061
:101DD0000101F5CF60F109000101F5CF61F10A00C1
:101DE0000101F5CF62F14EC15BF14FC15CF150C111
:101DF0005DF151C15EF1ADEC25F0010101015B51D6
:101E0000300F22C1E9FF23C1EAFFEF6E010101019A
:101E1000224B232B010101013D51040D010EF3243E
:101E2000F66EF76A100EF722F86A000EF822090023
:101E30000101F5CF5FF109000101F5CF60F1090063
:101E40000101F5CF61F10A000101F5CF62F14EC148
:101E50005BF14FC15CF150C15DF151C15EF1BCEC71
:101E600026F05BC14EF15CC14FF15DC150F15EC126
:101E700051F10101010145514411D8A401D001D013
:101E800006D00101010147A701D001D0BED022C177
:101E9000E9FF23C1EAFF2E0EEF6E01010101224B83
:101EA000232B010101013D5101010101445F000E9D
:101EB00001013DBFFF0E01010101455B85D001011C
:101EC000010147A301D001D01CD0010151514E1195
:101ED0004F115011D8A401D001D013D00101556F7A
:101EE000000E010101013D6F0101555101013D51FC
:101EF00001010101446F0101456B010144BF450728
:101F00006CD0010101013D51040D010EF324F66E68
:101F1000F76A100EF722F86A000EF8220900010194
:101F2000F5CF5FF109000101F5CF60F10900010172
:101F3000F5CF61F10A000101F5CF62F14EC15BF10D
:101F40004FC15CF150C15DF151C15EF1ADEC25F0C6
:101F5000010101015B51300F22C1E9FF23C1EAFFFA
:101F6000EF6E01010101224B232B010101013D51C3
:101F7000040D010EF324F66EF76A100EF722F86ACC
:101F8000000EF82209000101F5CF5FF109000101FF
:101F9000F5CF60F109000101F5CF61F10A000101FF
:101FA000F5CF62F14EC15BF14FC15CF150C15DF103
:101FB00051C15EF1BCEC26F05BC14EF15CC14FF14A
:101FC0005DC150F15EC151F1010101013D07010107
:101FD0003D29D8A401D001D072D70FD022C1E9FF8A
:101FE00023C1EAFF300EEF6E01010101224B232BCA
:101FF000010101014407D8A0450701010101455134
:102000004411D8A401D001D0E9D70101010146ABA8
:1020100001D001D00BD022C1E9FF23C1EAFF450E58
:10202000EF6E01010101224B232B0AD022C1E9FFEF
:1020300023C1EAFF650EEF6E01010101224B232B44
:102040000101010141AF01D001D012D00101010114
:10205000406D0101411FD8B0412B22C1E9FF23C1CE
:10206000EAFF2D0EEF6E01010101224B232B0AD056
:1020700022C1E9FF23C1EAFF2B0EEF6E010101012E
:10208000224B232B0A0E010101017C6F000E01017E
:102090007D6F40C17AF141C17BF115EC25F0010162
:1020A00001017A51300F22C1E9FF23C1EAFFEF6E2F
:1020B00001010101224B232B0A0E010101017C6F5A
:1020C000000E01017D6F40C17AF141C17BF138EC16
:1020D00026F0010101017A51300F22C1E9FF23C12D
:1020E000EAFFEF6E01010101224B232B01010101E7
:1020F00046A701D002D09EEF0AF001010101435131
:10210000800A800F010ED8B4425DD8A001D002D061
:102110009EEF0AF022C1E9FF23C1EAFF200EEF6E15
:1021200001010101224B232B010101014207D8A02B
:102130004307010143514211D8A401D001D0EAD78D
:1021400076EF17F00101010147A301D001D02DD195
:102150000101010141AF01D001D016D0010E0101F2
:10216000010140250101556F000E010101014121CE
:102170000101566F0101555101010101445F010147
:10218000565101010101455B4BC15BF14CC15CF152
:102190004DC15DF1D4EC23F05BC14EF15CC14FF158
:1021A0005DC150F15EC151F10101556F000E010199
:1021B00001013D6F01015551010101013D510A0A23
:1021C000D8A401D001D001D02ED0010101013D5190
:1021D000040D010EF324F66EF76A100EF722F86A6A
:1021E000000EF8220900F550010101014E5D0900C1
:1021F000F55001014F590900F550010150590900EE
:10220000F55001015159D8B001D001D001D00BD007
:10221000010101013D2B010101013D510A0AD8A430
:1022200001D001D0D2D7010101013D5101010101CD
:10223000445F000E01013DBFFF0E01010101455B3E
:10224000010101014551800A800F0D0ED8B4445D93
:10225000D8B001D001D01BD044C15BF100EC1CF020
:102260005BC132F15CC133F15DC134F132C15DF16A
:1022700033C15EF134C15FF101014B0E0101010177
:102280005B6F0101010E01015C6F25EC2AF04EC16C
:102290005BF14FC15CF150C15DF151C15EF19DEC4C
:1022A00027F05BC163F15CC164F15DC165F14BC1B5
:1022B00060F14CC161F14DC162F169EC2AF060C17D
:1022C00052F161C153F162C154F144C15BF19BEC25
:1022D00017F05BC17AF15CC17BF15DC17CF152C149
:1022E0007DF153C17EF154C17FF1A9EC20F07AC198
:1022F0005BF17BC15CF17CC15DF1D4EC23F05BC18F
:102300004EF15CC14FF15DC150F15EC151F124D07D
:102310000A0E010101015F6F000E0101606F000EE6
:102320000101616F000E0101626F4EC15BF14FC18F
:102330005CF150C15DF151C15EF1ADEC25F05BC1C6
:102340004EF15CC14FF15DC150F15EC151F101012F
:1023500001014407D8A0450701010101455144117D
:10236000D8B401D001D020D00A0E010101015F6F65
:10237000000E0101606F000E0101616F000E01018E
:10238000626F4EC15BF14FC15CF150C15DF151C153
:102390005EF1BCEC26F001015E515B115C115D1138
:1023A000D8B401D001D0B4D727D0010101014551E3
:1023B000800A800F0D0ED8B4445DD8B001D001D092
:1023C0001BD044C15BF100EC1CF05BC135F15CC17A
:1023D00036F15DC137F135C15DF136C15EF137C10E
:1023E0005FF101014B0E010101015B6F0101010E63
:1023F00001015C6F25EC2AF0010101014151800AC5
:10240000800F0A0ED8B4405DD8B001D001D028D0DA
:10241000010101014B5101014C1101014D11D8B4D1
:1024200001D001D071D04BC15BF14CC15CF14DC109
:102430005DF1D4EC23F001015E515B115C115D1183
:10244000D8A401D001D060D0010101014151800A1E
:10245000800F020ED8B4405DD8A001D001D054D076
:10246000700E010101015E6F890E010101015F6FB4
:10247000400E01010101606F48C15BF149C15CF18F
:102480004AC15DF12DEC27F0D8B001D001D008D0C1
:102490000101F70E01014027FF0E0101412307D082
:1024A0000101F80E01014027FF0E0101412340C147
:1024B0005BF19BEC17F05BC148F15CC149F15DC178
:1024C0004AF148C15EF149C15FF14AC160F14BC1B7
:1024D0005BF14CC15CF14DC15DF1C5EC1EF05BC11F
:1024E0004EF15CC14FF15DC150F15EC151F1000E82
:1024F000010101014B6F000E010101014C6F000E43
:10250000010101014D6F38D04BC15BF14CC15CF151
:102510004DC15DF1D4EC23F05BC14EF15CC14FF1D4
:102520005DC150F15EC151F14EC15BF14FC15CF133
:1025300050C15DF151C15EF19DEC27F05BC138F1F6
:102540005CC139F15DC13AF138C15DF139C15EF16B
:102550003AC15FF101014B0E010101015B6F010105
:10256000010E01015C6F03EC2AF0000E0101010174
:10257000406F000E0101416F0101556F010E010115
:1025800001013D6F01015551010101013D510A0A4F
:10259000D8A401D001D001D02ED0010101013D51BC
:1025A000040D010EF324F66EF76A100EF722F86A96
:1025B000000EF8220900F550010101014E5D0900ED
:1025C000F55001014F590900F5500101505909001A
:1025D000F55001015159D8B001D001D001D00BD034
:1025E000010101013D2B010101013D510A0AD8A45D
:1025F00001D001D0D2D701013DC155F10101566B87
:1026000055BF560701010101445101015527010140
:102610000101455101015623010101014051010110
:102620005527010101014151010156230101555175
:1026300001010101425F0101565101010101435BAA
:102640000101010147B701D001D008D0010101010A
:1026500045514411D8B401D001D005D00101010188
:102660004207D8A04307030E0101010146150101ED
:10267000556F000E0101010147150101566F01015F
:1026800056515511D8B401D001D005D00101010136
:102690004207D8A043070101010146B701D001D08C
:1026A0001CD00FD022C1E9FF23C1EAFF200EEF6E3C
:1026B00001010101224B232B010101014207D8A096
:1026C0004307010101014351800A800F010ED8B474
:1026D000425DD8B001D001D0E5D70101010146A388
:1026E00001D001D022D00101556F2B0E0101010153
:1026F0003B6F010155510101010146A101D001D0FB
:1027000008D00101556F2D0E010101013B6F010140
:10271000555122C1E9FF23C1EAFF01013BC1EFFF8F
:1027200001010101224B232B10D00101010146A11F
:1027300001D001D00AD022C1E9FF23C1EAFF200E57
:10274000EF6E01010101224B232B4BD0010101014E
:102750003D51040D010EF324F66EF76A100EF722B8
:10276000F86A000EF82209000101F5CF5FF10900B7
:102770000101F5CF60F109000101F5CF61F10A0017
:102780000101F5CF62F14EC15BF14FC15CF150C167
:102790005DF151C15EF1ADEC25F05BC15BF15CC157
:1027A0005CF15DC15DF15EC15EF10A0E01010101E6
:1027B0005F6F000E0101606F000E0101616F000E7E
:1027C0000101626FBCEC26F0010101015B51300F89
:1027D00022C1E9FF23C1EAFFEF6E01010101224B93
:1027E000232B010101013D0701013D29D8A401D09E
:1027F00001D0ACD70FD022C1E9FF23C1EAFF300ED0
:10280000EF6E01010101224B232B01010101400761
:10281000D8A04107010101014151800A800F010E3A
:10282000D8B4405DD8B001D001D0E5D70101010195
:102830004551800A800F090ED8B4445DD8A001D05C
:1028400001D009D00101556F080E010101013D6F52
:102850000101555102D044C13DF1010101013D5139
:1028600001010101445F000E01013DBFFF0E0101A6
:102870000101455B010101013D6701D001D006D096
:102880000101010147A701D001D00AD022C1E9FF0F
:1028900023C1EAFF2E0EEF6E01010101224B232B13
:1028A0003DC15BF19BEC17F05BC17AF15CC17BF140
:1028B0005DC17CF14BC17DF14CC17EF14DC17FF119
:1028C000A9EC20F07AC15BF17BC15CF17CC15DF1C8
:1028D000D4EC23F05BC14EF15CC14FF15DC150F10E
:1028E0005EC151F17AD0010101013D51040D010E8B
:1028F000F324F66EF76A100EF722F86A000EF8223B
:1029000009000101F5CF5FF109000101F5CF60F188
:1029100009000101F5CF61F10A000101F5CF62F173
:102920004EC15BF14FC15CF150C15DF151C15EF12F
:10293000ADEC25F05BC15BF15CC15CF15DC15DF1AB
:102940005EC15EF10A0E010101015F6F000E01011F
:10295000606F000E0101616F000E0101626FBCEC3F
:1029600026F0010101015B51300F22C1E9FF23C1B3
:10297000EAFFEF6E01010101224B232B010101014E
:102980003D51040D010EF324F66EF76A100EF72286
:10299000F86A000EF82209000101F5CF5FF1090085
:1029A0000101F5CF60F109000101F5CF61F10A00E5
:1029B0000101F5CF62F14EC15BF14FC15CF150C135
:1029C0005DF151C15EF1BCEC26F05BC14EF15CC122
:1029D0004FF15DC150F15EC151F1010101013D07AF
:1029E00001013D29D8A401D001D07DD70FD022C14B
:1029F000E9FF23C1EAFF300EEF6E01010101224B16
:102A0000232B010101014407D8A045070101010161
:102A100045514411D8A401D001D0E9D701010101E9
:102A200046A701D002D09EEF0AF0010101014351F7
:102A3000800A800F010ED8B4425DD8A001D002D028
:102A40009EEF0AF022C1E9FF23C1EAFF200EEF6EDC
:102A500001010101224B232B010101014207D8A0F2
:102A60004307010143514211D8A401D001D0EAD754
:102A70003DD201013EC1E9FF01013FC1EAFF010171
:102A8000020E01013E27000E01013F23EECF55F15A
:102A9000EDCF56F1010155C14EF1010156C14FF183
:102AA00001010101506B0101516B0101010145510F
:102AB0004411D8A401D001D00DD0010151514E11C3
:102AC0004F115011D8A401D001D004D0010101014F
:102AD000444B452B0101556F010E010101013D6F72
:102AE00001015551010101013D51080AD8A401D04D
:102AF00001D001D02ED0010101013D51040D770E0E
:102B0000F324F66EF76A100EF722F86A000EF82228
:102B10000900F550010101014E5D0900F550010168
:102B20004F590900F550010150590900F5500101B4
:102B30005159D8B001D001D001D00BD00101010111
:102B40003D2B010101013D51080AD8A401D001D05B
:102B5000D2D7800E010101013DBF7F0E556F0101EB
:102B600001014451010101013D5D01010101455196
:102B7000800A01015559D8B001D001D003D044C119
:102B80003DF122D0010101014551800A0101556F3B
:102B9000010101013D5101010101445D800E01016E
:102BA00001013DBF7F0E01015559D8B001D001D0C0
:102BB0000BD0010101013D5101010101446F0101EF
:102BC000456B010144BF4507010101014351421119
:102BD000D8B401D001D018D0030E0101010146156F
:102BE0000101556F000E0101010147150101566FEA
:102BF000010156515511D8B401D001D005D00101C1
:102C000001014207D8A043070101010147AD01D0EE
:102C100001D02AD0010101014551800A0101556FFF
:102C200001010101425101010101445D0101010164
:102C30004351800A01015559D8B001D001D00DD0BF
:102C400001010101445101010101425F0101010142
:102C5000455101010101435B07D0000E0101010153
:102C6000426F000E0101436F0101010147A701D02E
:102C700001D01BD0010101014351800A800F030ED6
:102C8000D8B4425DD8A001D001D008D00101FE0E19
:102C900001014227FF0E0101432307D0000E01016D
:102CA0000101426F000E0101436F800E010101011D
:102CB0003DBF7F0E556F010101014251010101012C
:102CC0003D5D010101014351800A01015559D8B010
:102CD00001D001D00ED0010101013D5101010101DE
:102CE000425F000E01013DBFFF0E01010101435B88
:102CF00007D0000E01010101426F000E0101436F78
:102D00000101010143514211D8B401D001D01CD0BE
:102D10000101010146B701D001D016D022C1E9FF5F
:102D200023C1EAFF200EEF6E01010101224B232B8C
:102D3000010101014207D8A043070101435142119B
:102D4000D8A401D001D0EAD70101010146A301D0E6
:102D500001D022D00101556F2B0E010101013C6F02
:102D6000010155510101010146A101D001D008D056
:102D70000101556F2D0E010101013C6F01015551FB
:102D800022C1E9FF23C1EAFF01013CC1EFFF0101BC
:102D90000101224B232B10D00101010146A101D0DA
:102DA00001D00AD022C1E9FF23C1EAFF200EEF6E55
:102DB00001010101224B232B0101010147A701D091
:102DC00001D014D022C1E9FF23C1EAFF300EEF6E1B
:102DD00001010101224B232B22C1E9FF23C1EAFF9C
:102DE000780EEF6E01010101224B232B4AD044C122
:102DF00055F1D89001015537D89001015537770E1C
:102E000001015525F66EF76A100EF722F86A000EDA
:102E1000F82209000101F5CF5FF109000101F5CFAA
:102E200060F109000101F5CF61F10A000101F5CF60
:102E300062F14EC15BF14FC15CF150C15DF151C116
:102E40005EF1ADEC25F00F0E010101015B17970E4D
:102E5000010101015B25F66EF76A100EF722F86A90
:102E6000000EF82208000101F5CF3DF122C1E9FF73
:102E700023C1EAFF01013DC1EFFF01010101224B26
:102E8000232B010101014407D8A045070101442972
:102E9000D8B44529D8A401D001D0A9D70101010196
:102EA00046A701D001D022D0010101014351800A7F
:102EB000800F010ED8B4425DD8A001D001D016D049
:102EC00022C1E9FF23C1EAFF200EEF6E01010101DB
:102ED000224B232B010101014207D8A04307010126
:102EE00043514211D8A401D001D0EAD70101010118
:102EF00024510101556F0101010125510101566F56
:102F00000101244B252B55C1F6FF56C1F7FF000EDA
:102F1000F86E08000101F5CF3DF101013D6701D0D8
:102F200002D065EF08F022C1E9FF23C1EAFF000EDD
:102F3000EF6E00D01200010101015BAF01D001D0A2
:102F400062D1010101015B6D010101015B51800A48
:102F5000120FD8A001D001D0C2D0640E010101012E
:102F60007C6F000E01017D6F010101015B510101C8
:102F700001017A6F01017B6B01017ABF7B0715ECC0
:102F800025F07AC15EF17BC15FF1640E01010101A0
:102F90007C6F000E01017D6F010101015B51010198
:102FA00001017A6F01017B6B01017ABF7B0738EC6D
:102FB00026F07AC160F17BC161F160C17AF161C133
:102FC0007BF10A0E010101017C6F000E01017D6F92
:102FD00015EC25F07AC162F17BC163F101010101B9
:102FE0006251090F030D290EF324F66EF76A100ED5
:102FF000F722F86A000EF8220900F5CF74F10900F3
:10300000F5CF75F10900F5CF76F174C17DF175C189
:103010007EF176C17FF1010101015E51120F030DB6
:10302000290EF324F66EF76A100EF722F86A000EE6
:10303000F8220900F5CF77F10900F5CF78F1090002
:10304000F5CF79F177C17AF178C17BF179C17CF163
:10305000A9EC20F07AC164F17BC165F17CC166F115
:103060000A0E010101017C6F000E01017D6F01015B
:1030700001015B51010101017A6F01017B6B0101CB
:103080007ABF7B0738EC26F0010101017A51030D6C
:10309000290EF324F66EF76A100EF722F86A000E76
:1030A000F8220900F5CF74F10900F5CF75F1090098
:1030B000F5CF76F174C17DF175C17EF176C17FF1F6
:1030C00064C17AF165C17BF166C17CF1A9EC20F0A5
:1030D0007AC15BF17BC15CF17CC15DF1F3D101018F
:1030E00001015B51800A750FD8A001D001D06ED0CC
:1030F0000A0E010101017C6F000E01017D6F0101CB
:1031000001015B51010101017A6F01017B6B01013A
:103110007ABF7B0715EC25F07AC167F17BC168F1B6
:103120000A0E010101017C6F000E01017D6F01019A
:1031300001015B51010101017A6F01017B6B01010A
:103140007ABF7B0738EC26F0010101017A51030DAB
:10315000290EF324F66EF76A100EF722F86A000EB5
:10316000F8220900F5CF74F10900F5CF75F10900D7
:10317000F5CF76F174C17DF175C17EF176C17FF135
:10318000010101016751090F030D290EF324F66EA9
:10319000F76A100EF722F86A000EF8220900F5CF40
:1031A00077F10900F5CF78F10900F5CF79F177C112
:1031B0007AF178C17BF179C17CF1A9EC20F07AC178
:1031C0005BF17BC15CF17CC15DF17CD1010101014E
:1031D0005B51030D290EF324F66EF76A100EF722E9
:1031E000F86A000EF8220900F5CF74F10900F5CF56
:1031F00075F10900F5CF76F174C15BF175C15CF131
:1032000076C15DF15FD1010101015B51800A120FAE
:10321000D8A001D001D0C2D0640E010101017C6FA1
:10322000000E01017D6F010101015B5101010101EE
:103230007A6F01017B6B01017ABF7B0715EC25F0EA
:103240007AC169F17BC16AF1640E010101017C6FF1
:10325000000E01017D6F010101015B5101010101BE
:103260007A6F01017B6B01017ABF7B0738EC26F096
:103270007AC16BF17BC16CF16BC17AF16CC17BF1EE
:103280000A0E010101017C6F000E01017D6F15EC3A
:1032900025F07AC16DF17BC16EF1010101016D5123
:1032A000090F030D500EF324F66EF76A100EF72285
:1032B000F86A000EF8220900F5CF74F10900F5CF85
:1032C00075F10900F5CF76F174C17DF175C17EF11C
:1032D00076C17FF1010101016951120F030D500EFA
:1032E000F324F66EF76A100EF722F86A000EF82241
:1032F0000900F5CF77F10900F5CF78F10900F5CF96
:1033000079F177C17AF178C17BF179C17CF1A9ECCF
:1033100020F07AC16FF17BC170F17CC171F10A0EAE
:10332000010101017C6F000E01017D6F01010101AE
:103330005B51010101017A6F01017B6B01017ABFD1
:103340007B0738EC26F0010101017A51030D500E84
:10335000F324F66EF76A100EF722F86A000EF822D0
:103360000900F5CF74F10900F5CF75F10900F5CF2B
:1033700076F174C17DF175C17EF176C17FF16FC1C7
:103380007AF170C17BF171C17CF1A9EC20F07AC1B6
:103390005BF17BC15CF17CC15DF194D00101010165
:1033A0005B51800A750FD8A001D001D06ED00A0EF3
:1033B000010101017C6F000E01017D6F010101011E
:1033C0005B51010101017A6F01017B6B01017ABF41
:1033D0007B0715EC25F07AC172F17BC173F10A0EFF
:1033E000010101017C6F000E01017D6F01010101EE
:1033F0005B51010101017A6F01017B6B01017ABF11
:103400007B0738EC26F0010101017A51030D500EC3
:10341000F324F66EF76A100EF722F86A000EF8220F
:103420000900F5CF74F10900F5CF75F10900F5CF6A
:1034300076F174C17DF175C17EF176C17FF1010134
:1034400001017251090F030D500EF324F66EF76A55
:10345000100EF722F86A000EF8220900F5CF77F176
:103460000900F5CF78F10900F5CF79F177C17AF14C
:1034700078C17BF179C17CF1A9EC20F07AC15BF1D4
:103480007BC15CF17CC15DF11DD0010101015B518B
:10349000030D500EF324F66EF76A100EF722F86A49
:1034A000000EF8220900F5CF74F10900F5CF75F18F
:1034B0000900F5CF76F174C15BF175C15CF176C19D
:1034C0005DF100D0120000D00101700E0101010178
:1034D000896F0101010E01018A6F0101660E010170
:1034E0000101876F0101010E0101886F68EC28F06E
:1034F000010101016E6F01010101706701D001D06E
:1035000007D069C166F16AC167F16BC168F177D113
:1035100001016F0E01010101896F0101010E01011D
:103520008A6F0101690E01010101876F0101010E1E
:103530000101886F68EC28F0010101016C6F010145
:1035400001016F51D8B401D001D032D10101716FA6
:10355000060E010101016D6F0101715101010101AF
:103560006F5101010101706101D001D04FD0010103
:1035700001017051010101016F5D0101716F190EAF
:103580000101715DD8A001D001D011D0000E010160
:103590000101666F000E01010101676F000E01015C
:1035A0000101686F6FC170F16CC16EF12ED0010125
:1035B000D8900101693701016A3701016B370101B8
:1035C00001016F07010101016F5101010101701932
:1035D000D8B401D001D004D0010101016D2FE7D78B
:1035E0000BD00101D890010168330101673301015B
:1035F000663301010101702B010101016F510101CD
:103600000101706301D001D0ECD754D00101010158
:103610007051010101016F19D8B401D001D04AD015
:10362000010101016F5101010101705D0101716F23
:10363000190E0101715DD8A001D001D00DD0000E8E
:1036400001010101696F000E010101016A6F000EA5
:10365000010101016B6F2ED00101D8900101663785
:10366000010167370101683701010101700701019C
:1036700001016F51010101017019D8B401D001D0CD
:1036800004D0010101016D2FE7D70BD00101D890C3
:1036900001016B3301016A33010169330101010149
:1036A0006F2B010101016F5101010101706301D014
:1036B00001D0ECD7010101016E51D8B401D001D085
:1036C00018D0FF0E01010101661BFF0E010101016F
:1036D000671BFF0E01010101681B010E01010101C1
:1036E0006627000E010101016723000E010101019F
:1036F0006823010101016C51D8B401D001D018D068
:10370000FF0E01010101691BFF0E010101016A1B8E
:10371000FF0E010101016B1B010E0101010169276F
:10372000000E010101016A23000E010101016B235A
:103730000101716F000E010101016E6F01017151F4
:103740000101010169510101010166270101010126
:103750006A51010101016723010101016B5101015E
:10376000010168230101010168AF01D001D020D01F
:10377000FF0E01010101661BFF0E01010101671B24
:10378000FF0E01010101681B010E01010101662705
:10379000000E010101016723000E010101016823F0
:1037A0000101716F010E010101016E6F0101715183
:1037B00070C189F10101660E01010101876F0101EC
:1037C000010E0101886F76EC24F0010101016E51B8
:1037D000D8B401D001D00CD0000E01010101661B4C
:1037E000000E01010101671B800E01010101681B30
:1037F00066C166F167C167F168C168F100D0120067
:103800006D0E010101015B6501D001D0CAD0640ECB
:10381000010101017C6F000E01017D6F01010101B9
:103820005BC17AF1010101017B6B15EC25F07AC1D6
:103830005EF17BC15FF1640E010101017C6F000E3E
:1038400001017D6F010101015BC17AF101010101FB
:103850007B6B38EC26F07AC160F17BC161F160C10D
:103860007AF161C17BF10A0E010101017C6F000E4A
:1038700001017D6F15EC25F07AC162F17BC163F126
:10388000010101016251090F030D290EF324F66EA7
:10389000F76A100EF722F86A000EF8220900F5CF39
:1038A00069F10900F5CF6AF10900F5CF6BF169C143
:1038B0007DF16AC17EF16BC17FF1010101015E51B1
:1038C000120F030D290EF324F66EF76A100EF7227D
:1038D000F86A000EF8220900F5CF6CF10900F5CF67
:1038E0006DF10900F5CF6EF16CC17AF16DC17BF11C
:1038F0006EC17CF1A9EC20F07AC164F17BC165F165
:103900007CC166F10A0E010101017C6F000E01010C
:103910007D6F010101015BC17AF1010101017B6B46
:1039200038EC26F0010101017A51030D290EF32430
:10393000F66EF76A100EF722F86A000EF8220900F8
:10394000F5CF69F10900F5CF6AF10900F5CF6BF108
:1039500069C17DF16AC17EF16BC17FF164C17AF109
:1039600065C17BF166C17CF1A9EC20F07AC17AF1E6
:103970007BC17BF17CC17CF1000E010101017D6FF7
:10398000000E010101017E6F3F0E010101017F6FF9
:10399000A9EC20F07AC15BF17BC15CF17CC15DF1E7
:1039A000B2D00A0E010101015B6501D001D07AD0CD
:1039B0000A0E010101017C6F000E01017D6F010102
:1039C00001015BC17AF1010101017B6B15EC25F06E
:1039D0007AC167F17BC168F10A0E010101017C6FB8
:1039E000000E01017D6F010101015BC17AF101014E
:1039F00001017B6B38EC26F0010101017A51030DC6
:103A0000290EF324F66EF76A100EF722F86A000EFC
:103A1000F8220900F5CF69F10900F5CF6AF1090034
:103A2000F5CF6BF169C17DF16AC17EF16BC17FF1A8
:103A3000010101016751090F030D290EF324F66EF0
:103A4000F76A100EF722F86A000EF8220900F5CF87
:103A50006CF10900F5CF6DF10900F5CF6EF16CC185
:103A60007AF16DC17BF16EC17CF1A9EC20F07AC1D5
:103A70007AF17BC17BF17CC17CF1000E0101010177
:103A80007D6F000E010101017E6F3F0E01010101FA
:103A90007F6FA9EC20F07AC15BF17BC15CF17CC146
:103AA0005DF131D0000E010101017D6F000E0101B9
:103AB00001017E6F3F0E010101017F6F01010101D4
:103AC0005B51030D290EF324F66EF76A100EF722F0
:103AD000F86A000EF8220900F5CF69F10900F5CF68
:103AE0006AF10900F5CF6BF169C17AF16AC17BF126
:103AF0006BC17CF1A9EC20F07AC15BF17BC15CF178
:103B00007CC15DF100D01200000E926E9368040E2D
:103B1000946E000E956E0101206F0F0EC16E0101B3
:103B20002051CD920101206F810ECD6E01012051F7
:103B3000CD809D809F80F28C9484050EBD6E9D8407
:103B4000F28C9482040EBA6EA080F28CBDEC28F048
:103B5000E80E01010101266F030E0101276F48ECF9
:103B600029F0000E0C6E000E0D6E000E0E6E000E93
:103B70000F6EF28E0050045C086E01500558096EFD
:103B8000025006580A6E035007580B6E800E010152
:103B900001015F6F960E0101606F980E0101616F68
:103BA000000E0101626F08C05BF109C05CF10AC040
:103BB0005DF10BC05EF1ADEC25F05BC15BF15CC16A
:103BC0005CF15DC15DF15EC15EF19DEC27F05BC112
:103BD00008F15CC109F15DC10AF181A201D001D0F7
:103BE000D1D008C17DF109C17EF10AC17FF108C1C0
:103BF0007AF109C17BF10AC17CF1A9EC20F07AC10C
:103C00007AF17BC17BF17CC17CF1CD0E0101010118
:103C10007D6F9C0E010101017E6F400E01010101CB
:103C20007F6FA9EC20F07AC105F17BC106F17CC160
:103C300007F1EC0E010101017D6F510E010101013F
:103C40007E6F400E010101017F6F05C17AF106C14F
:103C50007BF107C17CF1A9EC20F07AC102F17BC1B4
:103C600003F17CC104F102C128F103C129F104C1AF
:103C70002AF1AF0E01010101266F100E0101276F1D
:103C8000150E01010101246F000E0101256F0101D4
:103C90000B0E01010101226F0101010E0101236FD1
:103CA0005AEC08F00101206F000E01010101236FA1
:103CB000010120510101216F000E01010101226F5C
:103CC0000101215106EC29F00101206F070E0101CD
:103CD0000101276F010120510101216F090E01012E
:103CE0000101266F0101215108C022F109C023F111
:103CF0000AC024F10BC025F110EC23F00101206F64
:103D0000000E01010101236F010120510101216F0A
:103D1000010E01010101226F0101215106EC29F080
:103D2000000E01010101006F000E0101016F140E70
:103D300001010101005D000E01010159D8A001D06F
:103D400001D001D01FD001010B0E0101010100259E
:103D5000E96EEA6A0101010EEA22EF500101010158
:103D6000346FAAEC2AF001010101004B012B140E63
:103D700001010101005D000E01010159D8A001D02F
:103D800001D0E1D7F7D60CEF04F0000E01010101DC
:103D9000636F000E0101646F000E0101656F000E7C
:103DA0000101666F0101620E01010101896F0101CC
:103DB000010E01018A6F01015B0E01010101876F94
:103DC0000101010E0101886F68EC28F00101010179
:103DD000626701D001D009D063C15BF164C15CF1BD
:103DE00065C15DF166C15EF1D1D00101610E0101D5
:103DF0000101896F0101010E01018A6F01015E0E4F
:103E000001010101876F0101010E0101886F68EC5A
:103E100028F001010101616701D001D009D063C11F
:103E20005BF164C15CF165C15DF166C15EF1AED06C
:103E30000101010161511F0F01010101625F0101D7
:103E4000676F200E01010101616F010167510101DE
:103E5000D890010163370101643701016537010121
:103E60006637010101015E51010101015B5D010144
:103E700001015F51010101015C5901010101605122
:103E8000010101015D59D8A001D001D015D0010177
:103E900001015E51010101015B5F010101015F51FF
:103EA000010101015C5B010101016051010101019E
:103EB0005D5B0101010163810101D89001015B3764
:103EC00001015C3701015D3701010101612FBFD79D
:103ED0000101010162AF01D001D026D00101010131
:103EE0006251800A9F0FD8B001D001D00ED0000ED1
:103EF000010101015B6F000E01015C6F000E010109
:103F00005D6F000E01015E6F41D00101D89001018B
:103F1000663301016533010164330101633301013B
:103F20000101623FF2D729D01F0E01010101626534
:103F300001D001D00ED0000E010101015B6F000E17
:103F400001015C6F000E01015D6F000E01015E6FEB
:103F50001DD00DD00101D8900101633701016437F4
:103F600001016537010166370101010162070101A5
:103F70000101626701D001D0EDD763C15BF164C17B
:103F80005CF165C15DF166C15EF100D01200010116
:103F9000426F000E010101013D6F0101425101011B
:103FA00001013BAF01D001D018D0010101013B1F3D
:103FB00001013A1F0101391F0101386D000E010195
:103FC000392301013A2301013B230101426F010E14
:103FD000010101013D6F010142510101010137AFB2
:103FE00001D001D014D001010101371F0101361F9A
:103FF0000101351F0101346D000E0101352301015E
:10400000362301013723010E010101013D1B000E82
:10401000010101013E6F000E01013F6F000E010121
:10402000406F000E0101416F01013B513811391100
:104030003A11D8B401D001D06BD00101426F010E0A
:10404000010101013C6F010142510DD00101D890E5
:10405000010138370101393701013A3701013B3796
:10406000010101013C2B010101013BAF01D001D055
:10407000EDD70101D89001013E3701013F37010121
:1040800040370101413701010101385101010101AE
:10409000345D01010101395101010101355901016D
:1040A00001013A51010101013659010101013B5160
:1040B000010101013759D8A001D001D01BD0010165
:1040C0000101385101010101345F01010101395140
:1040D00001010101355B010101013A5101010101B9
:1040E000365B010101013B5101010101375B010117
:1040F00001013E810101D89001013B3301013A33B6
:104100000101393301013833010101013C2FB1D7DD
:10411000010101013D51D8B401D001D010D00101FD
:104120000101411F0101401F01013F1F01013E6DBF
:10413000000E01013F2301014023010141233EC143
:1041400034F13FC135F140C136F141C137F100D002
:104150001200000E01010101836F000E0101010137
:10416000846F000E01010101856F0101810E0101C3
:104170000101896F0101010E01018A6F01017A0EAF
:1041800001010101876F0101010E0101886F68ECD7
:1041900028F001010101806F0101820E010101017E
:1041A000896F0101010E01018A6F01017D0E01017C
:1041B0000101876F0101010E0101886F68EC28F091
:1041C00001010101801B010101018251D8B401D01C
:1041D00001D006D001010101816701D001D007D0D3
:1041E00083C17AF184C17BF185C17CF18DD001015D
:1041F000010182517B0F0101010181270101866FBD
:10420000070E01010101826F0101865101010101C7
:104210007AA101D001D012D0010101017D5101012B
:1042200001018327010101017E5101010101842364
:10423000010101017F510101010185230101D89094
:1042400001017C3301017B3301017A330101D890F4
:1042500001017D3701017E3701017F370101010135
:10426000822FD4D70101866F090E01010101826FEF
:1042700001018651010101017AA101D001D012D0C2
:10428000010101017D5101010101832701010101AA
:104290007E51010101018423010101017F510101CE
:1042A000010185230101D89001017C3301017B3399
:1042B00001017A330101D890010185330101843372
:1042C0000101833301010101822FD4D781C189F11A
:1042D0000101830E01010101876F0101010E01013E
:1042E000886F76EC24F0010101018051D8B401D02F
:1042F00001D003D001010101858F83C17AF184C10E
:104300007BF185C17CF100D01200000E010101019A
:104310006A6F000E010101016B6F000E01010101C6
:104320006C6F0101680E01010101896F0101010E2D
:1043300001018A6F0101600E01010101876F010116
:10434000010E0101886F68EC28F001010101676F1F
:1043500001010101686701D001D007D06AC160F195
:104360006BC161F16CC162F196D00101660E010171
:104370000101896F0101010E01018A6F0101630EC4
:1043800001010101876F0101010E0101886F68ECD5
:1043900028F001010101696F01010101666701D087
:1043A00001D007D06AC160F16BC161F16CC162F1EB
:1043B00072D0010101016651890F01010101685F9D
:1043C00001010101695101010101671B01016D6FCB
:1043D000180E01010101696F01016D510101D890B1
:1043E00001016A3701016B3701016C3701010101DD
:1043F000635101010101605D01010101645101018D
:104400000101615901010101655101010101625977
:10441000D8A001D001D015D00101010163510101E3
:104420000101605F01010101645101010101615B52
:1044300001010101655101010101625B01010101FD
:104440006A810101D89001016037010161370101E2
:10445000623701010101692FC1D768C189F10101EA
:104460006A0E01010101876F0101010E0101886FD0
:1044700076EC24F0010101016751D8B401D001D0DC
:1044800003D0010101016C8F6AC160F16BC161F160
:104490006CC162F100D0120001013E6F000E0101FB
:1044A00001013C6F01013E510101010137AF01D013
:1044B00001D018D001010101371F0101361F010190
:1044C000351F0101346D000E010135230101362332
:1044D0000101372301013E6F010E010101013C6F13
:1044E00001013E51010101013BAF01D001D010D0CB
:1044F000010101013B1F01013A1F0101391F0101A7
:10450000386D000E0101392301013A2301013B23DB
:1045100001013B51381139113A11D8B401D001D001
:104520005ED001013E6F010E010101013D6F0101ED
:104530003E510DD00101D8900101383701013937C2
:1045400001013A3701013B37010101013D2B010116
:1045500001013BAF01D001D0EDD70101010138517C
:1045600001010101345D0101010139510101010124
:104570003559010101013A51010101013659010189
:1045800001013B51010101013759D8A001D001D0EF
:1045900018D001010101385101010101345F01010D
:1045A0000101395101010101355B010101013A515C
:1045B00001010101365B010101013B5101010101D2
:1045C000375B0101D89001013B3301013A3301010E
:1045D000393301013833010101013D2FBED70101FB
:1045E00001013C51D8B401D001D010D0010101012A
:1045F000371F0101361F0101351F0101346D000E07
:1046000001013523010136230101372334C134F17F
:1046100035C135F136C136F137C137F100D012005E
:104620000101010125AF01D001D01BD00101336F81
:104630002D0E01010101346F01013351AAEC2AF062
:1046400001010101251F0101241F0101231F010197
:10465000226D000E010123230101242301012523E2
:104660000AD00101336F200E01010101346F0101F5
:104670003351AAEC2AF00101336F000E0101010150
:10468000286F01013351090E01010101286501D094
:1046900001D001D04ED00101290E010101012825D0
:1046A000E96EEA6A0101010EEA220A0E0101010126
:1046B000386F000E0101396F000E01013A6F000ED4
:1046C00001013B6F22C134F123C135F124C136F120
:1046D00025C137F14CEC22F0010101013451EF6E9C
:1046E0000A0E01010101386F000E0101396F000E41
:1046F00001013A6F000E01013B6F22C134F123C169
:1047000035F124C136F125C137F1C7EC1FF034C1B2
:1047100022F135C123F136C124F137C125F1010160
:104720000101282B090E01010101286501D001D0EA
:10473000B2D726C128F101010101286701D001D0BB
:1047400001D031D00101010127510101010128638C
:1047500001D001D00AD00101336F2E0E01010101F9
:10476000346F01013351AAEC2AF028C133F1FF0E56
:10477000010133270101290E01013325E96EEA6A9F
:104780000101010EEA22EF50300F01010101346FE7
:10479000AAEC2AF0010101012807010101012867A3
:1047A00001D001D0CFD712000101600E010101013B
:1047B000896F0101010E01018A6F01015B0E010188
:1047C0000101876F0101010E0101886F68EC28F07B
:1047D000010101015F6F010101015B510101010153
:1047E000616F010101015C510101626F01015D51C5
:1047F0000101636F0101646B8E0E01010101605FB5
:104800000101010160AF01D001D026D001010101F9
:104810006051800A8F0FD8B001D001D00ED0000EA9
:10482000010101015B6F000E01015C6F000E0101CF
:104830005D6F000E01015E6F58D00101D89001013B
:10484000643301016333010162330101613301010A
:104850000101603FF2D729D01F0E010101016065FF
:1048600001D001D00ED0000E010101015B6F000EDE
:1048700001015C6F000E01015D6F000E01015E6FB2
:1048800034D00DD00101D8900101613701016237A8
:104890000101633701016437010101016007010172
:1048A0000101606701D001D0EDD7010101015F5125
:1048B000D8B401D001D010D001010101641F010161
:1048C000631F0101621F0101616D000E010162237E
:1048D000010163230101642361C15BF162C15CF1E9
:1048E00063C15DF164C15EF100D0120001010101FC
:1048F0008951D8B401D001D00BD087C1E9FF88C15C
:10490000EAFFEE50EE10ED10D8A401D001D00CD08B
:1049100087C1E9FF88C1EAFF000EEE6E000EEE6E61
:10492000000EED6EED5280D00DD001010101892BFA
:1049300087C1E9FF88C1EAFFEC52EC52D890ED3212
:10494000ED32EF3287C1E9FF88C1EAFFEE52EE5245
:10495000FE0EED14D8A401D001D0E7D716D0010186
:104960000101892B87C1E9FF88C1EAFFEE2A000E09
:10497000EE22ED22ED5287C1E9FF88C1EAFFEC5239
:10498000EC52D890ED32ED32EF3287C1E9FF88C1A9
:10499000EAFFEE52EE52FF0EED14D8A401D001D082
:1049A000DED70CD001010101890787C1E9FF88C169
:1049B000EAFFD890EE36EE36ED36ED5287C1E9FFCC
:1049C00088C1EAFFEECF8AF1EECF8BF1EECF8CF10A
:1049D00001018BAF01D001D0E5D70101010189B1FF
:1049E00001D001D00BD087C1E9FF88C1EAFFFF0EDB
:1049F000EE167F0EEE16FF0EED16ED520101D89069
:104A0000893301010101895101018C6F8B6B8A6B24
:104A100087C1E9FF88C1EAFF01018A51EE128B517B
:104A2000EE128C51ED12ED5212000101826F000E58
:104A3000010101017F6F01018251010101017DAF7F
:104A400001D001D00FD0010101017C6D01017D1F5A
:104A5000D8B07D2B0101826F010E010101017F6F32
:104A600001018251010101017BAF01D001D00BD0C6
:104A7000010101017A6D01017B1FD8B07B2B010E72
:104A8000010101017F1B000E01010101806F000E79
:104A90000101816F010101017D517C11D8B401D068
:104AA00001D047D00101826F010E010101017E6F2B
:104AB0000101825109D00101D89001017C37010127
:104AC0007D37010101017E2B010101017DAF01D084
:104AD00001D0F1D70101D890010180370101813760
:104AE000010101017C51010101017A5D0101010116
:104AF0007D51010101017B59D8A001D001D00FD017
:104B0000010101017C51010101017A5F01010101F3
:104B10007D51010101017B5B0101010180810101E6
:104B2000D89001017D3301017C33010101017E2F09
:104B3000D1D7010101017F51D8B401D001D007D0F4
:104B400001010101806D0101811FD8B0812B80C15D
:104B50007AF181C17BF100D01200000E0101010148
:104B6000646F000E0101656F000E0101666F000E9B
:104B70000101676F010162515F1160116111D8B4C9
:104B800001D001D06BD00101686F010E010101015C
:104B9000636F010168510DD00101D89001015F37A9
:104BA0000101603701016137010162370101010133
:104BB000632B0101010162AF01D001D0EDD70101EA
:104BC000D8900101643701016537010166370101A1
:104BD0006737010101015F51010101015B5D0101C5
:104BE00001016051010101015C59010101016151A3
:104BF000010101015D590101010162510101010140
:104C00005E59D8A001D001D01BD0010101015F5134
:104C1000010101015B5F010101016051010101011D
:104C20005C5B010101016151010101015D5B010159
:104C300001016251010101015E5B01010101648119
:104C40000101D89001016233010161330101603338
:104C500001015F3301010101632FB1D764C15BF131
:104C600065C15CF166C15DF167C15EF100D0120003
:104C70000101806F000E010101017E6F0101805171
:104C8000010101017BAF01D001D00FD00101010171
:104C90007A6D01017B1FD8B07B2B0101806F010E63
:104CA000010101017E6F01018051010101017DAF10
:104CB00001D001D007D0010101017C6D01017D1FF0
:104CC000D8B07D2B010101017D517C11D8B401D0F8
:104CD00001D03ED00101806F010E010101017F6F03
:104CE0000101805109D00101D89001017C370101F7
:104CF0007D37010101017F2B010101017DAF01D051
:104D000001D0F1D7010101017C51010101017A5D5E
:104D1000010101017D51010101017B59D8A001D0A0
:104D200001D00CD0010101017C51010101017A5F28
:104D3000010101017D51010101017B5B0101D8905D
:104D400001017D3301017C33010101017F2FDAD79D
:104D5000010101017E51D8B401D001D007D0010179
:104D600001017A6D01017B1FD8B07B2B7AC17AF1EA
:104D70007BC17BF100D01200010162515F11601113
:104D80006111D8B401D001D05ED00101646F010E71
:104D900001010101636F010164510DD00101D8903F
:104DA00001015F370101603701016137010162379D
:104DB00001010101632B0101010162AF01D001D0AA
:104DC000EDD7010101015F51010101015B5D0101AD
:104DD00001016051010101015C59010101016151B1
:104DE000010101015D59010101016251010101014E
:104DF0005E59D8A001D001D018D0010101015F5146
:104E0000010101015B5F010101016051010101012B
:104E10005C5B010101016151010101015D5B010167
:104E200001016251010101015E5B0101D8900101A4
:104E30006233010161330101603301015F3301011C
:104E40000101632FBED75BC15BF15CC15CF15DC149
:104E50005DF15EC15EF100D01200010101015DAFA4
:104E600001D001D01CD0000E616F000E626F800E69
:104E7000636F010101015B510101615D01010101EC
:104E80005B6F010101015C510101625901015C6F1D
:104E9000010101015D510101635901015D6F0101D2
:104EA000010160AF01D001D01CD0000E616F000E77
:104EB000626F800E636F010101015E510101615D4E
:104EC000010101015E6F010101015F5101016259A0
:104ED00001015F6F0101010160510101635901018D
:104EE000606F000E010101015B1B000E0101010159
:104EF0005C1B800E010101015D1B000E010101011F
:104F00005E1B000E010101015F1B800E010101010A
:104F1000601B010101015E51010101015B5D0101A5
:104F200001015F51010101015C5901010101605161
:104F3000010101015D5900D0120001015E515B11B8
:104F40005C115D11D8A401D001D00DD0000E01017B
:104F500001015B6F000E010101015C6F000E010198
:104F600001015D6F51D00101636F8E0E01010101DE
:104F70005F6F010163510DD00101D89001015E33D3
:104F800001015D3301015C3301015B33010101016A
:104F90005F2B000E010101015B150101636F000E23
:104FA000010101015C150101646F000E01010101A5
:104FB0005D150101656FFF0E010101015E15010123
:104FC000666F01016651631164116511D8A401D0A7
:104FD00001D0D2D75BC160F15CC161F15DC162F10A
:104FE0005FC189F10101600E01010101876F0101BB
:104FF000010E0101886F76EC24F060C15BF161C1A4
:105000005CF162C15DF100D012000600EACF92F1BE
:10501000E1CF93F1E2CF94F1D9CF95F1DACF96F1C8
:10502000F3CF97F1F4CF98F1F6CF99F1F7CF9AF14A
:10503000F8CF9BF19EA001D001D00DD0000E0C2422
:105040000C6E000E0D200D6E010E0E200E6E000E69
:105050000F200F6E9E909EA401D001D00DD0BE50A7
:105060000C24006EBF500D20016E000E0E20026E4B
:10507000000E0F20036E9E94A1A001D001D00DD090
:10508000BB500C24046EBC500D20056E000E0E208B
:10509000066E000E0F20076EA1909BC1F8FF9AC10B
:1050A000F7FF99C1F6FF98C1F4FF97C1F3FF96C1CE
:1050B000DAFF95C1D9FF94C1E2FF93C1E1FF92C12C
:1050C000EAFF91C1E9FF90C1FBFF8FC1FAFF110018
:1050D00087C1E9FF88C1EAFF010EEB34020EEB3411
:1050E000010101018B6F89C1E9FF8AC1EAFF01015A
:1050F0008BC1EFFF010101018B6701D001D00DD001
:1051000087C1E9FF88C1EAFF000EEE6E000EEE6E69
:10511000000EED6EED52000E2FD001018C6F000ECF
:10512000010101018B6F01018C5187C1E9FF88C129
:10513000EAFF010EEB8E87C1E9FF88C1EAFFEECFDF
:105140008CF1EECF8DF1EECF8EF101018EAF01D05B
:1051500001D003D0010101018B2B87C1E9FF88C178
:10516000EAFFFF0EEE16FF0EEE16000EED16ED52E4
:10517000010101018B5100D01200010E956E839246
:105180000101226F330E01010101246F010122513F
:10519000BAEC29F00101226F320E01010101246FE6
:1051A00001012251BAEC29F00101226F280E010100
:1051B0000101246F01012251BAEC29F00101226F93
:1051C0000E0E01010101246F01012251BAEC29F0F8
:1051D0000101226F010E01010101246F0101225121
:1051E000BAEC29F00101226F060E01010101246FC2
:1051F00001012251BAEC29F0640E01010101266F70
:10520000000E0101276F48EC29F012000101010195
:10521000226701D001D009D0010101012351800F83
:1052200001010101246FBAEC29F0010101012205FD
:10523000D8A401D001D009D0010101012351C00F30
:1052400001010101246FBAEC29F001010101225191
:10525000020AD8A401D001D009D0010101012351D3
:10526000940F01010101246FBAEC29F00101010141
:105270002251030AD8A401D001D009D001010101B3
:105280002351D40F01010101246FBAEC29F012005F
:10529000000E01010101286F000E0101296F26D0C7
:1052A000000E010101012A6F000E01012B6F690E32
:1052B000010101012A5D020E01012B59D8A001D084
:1052C00001D001D00FD0010101012A4B2B2B690E17
:1052D000010101012A5D020E01012B59D8A001D064
:1052E00001D0F1D701010101284B292B0101010156
:1052F000265101010101285D010101012751010130
:1053000001012959D8A001D001D0CAD71200000E3E
:10531000010101017E6F000E01017F6F010101019A
:105320007AA101D001D00CD0010101017C51010111
:1053300001017E27010101017D51010101017F234E
:105340000101D89001017C3701017D370101D8901E
:1053500001017B3301017A33010101017B517A1193
:10536000D8A401D001D0DAD77EC17AF17FC17BF118
:1053700000D01200839424C125F1F00E01012517FD
:1053800083500F0B01012511836EF6EC2AF024C126
:1053900025F10101253BF00E2517F00E010125171F
:1053A00083500F0B01012511836EF6EC2AF00A0ED3
:1053B00001010101266F000E0101276F48EC29F061
:1053C00012005DC17DF15EC17EF15FC17FF15BC105
:1053D000E9FF5CC1EAFF0101EECF7AF10101EECFF6
:1053E0007BF10101EDCF7CF1A9EC20F05BC1E9FF7D
:1053F0005CC1EAFF7AC1EEFF7BC1EEFF7CC1EDFF2D
:10540000ED5200D012005DC163F15EC164F15FC175
:1054100065F15BC1E9FF5CC1EAFF0101EECF60F11C
:105420000101EECF61F10101EDCF62F169EC2AF0EB
:105430005BC1E9FF5CC1EAFF60C1EEFF61C1EEFF45
:1054400062C1EDFFED5200D012005DC169F15EC195
:105450006AF15FC16BF15BC1E9FF5CC1EAFF010169
:10546000EECF66F10101EECF67F10101EDCF68F1FA
:1054700063EC1AF05BC1E9FF5CC1EAFF66C1EEFFB5
:1054800067C1EEFF68C1EDFFED5200D012005DC1B3
:1054900063F15EC164F15FC165F15BC1E9FF5CC1AD
:1054A000EAFF0101EECF60F10101EECF61F10101F0
:1054B000EDCF62F185EC21F05BC1E9FF5CC1EAFF51
:1054C00060C1EEFF61C1EEFF62C1EDFFED5200D0A1
:1054D0001200000E01010101631B000E0101010118
:1054E000641B800E01010101651B63C169F164C188
:1054F0006AF165C16BF160C166F161C167F162C1BA
:1055000068F163EC1AF066C160F167C161F168C1CE
:1055100062F100D01200010101015B5101015C1137
:1055200001015D11D8B401D001D00CD0000E0101F1
:1055300001015B1B000E010101015C1B800E0101DA
:1055400001015D1B5BC15BF15CC15CF15DC15DF1A3
:1055500000D01200838434C135F1F00E01013517FB
:1055600083500F0B01013511836EF6EC2AF034C124
:1055700035F10101353BF00E3517F00E01013517FD
:1055800083500F0B01013511836EF6EC2AF01200E7
:105590000101376F000E01010101366F0101375122
:1055A000130E01010101366501D001D001D00AD0EE
:1055B00001010101362B130E01010101366501D0F5
:1055C00001D0F6D712003A0E010101015B6101D052
:1055D00001D009D02F0E010101015B6501D001D07E
:1055E00002D0D88001D0D89000D012008396C8ECA9
:1055F0002AF08386C8EC2AF08396C8EC2AF01200C1
:00000001FF
